{
  "contractName": "VotingSystem",
  "abi": [
    {
      "anonymous": false,
      "inputs": [
        {
          "indexed": true,
          "internalType": "address",
          "name": "creator",
          "type": "address"
        },
        {
          "indexed": false,
          "internalType": "string",
          "name": "title",
          "type": "string"
        },
        {
          "indexed": false,
          "internalType": "uint256",
          "name": "deadline",
          "type": "uint256"
        }
      ],
      "name": "BallotCreated",
      "type": "event"
    },
    {
      "anonymous": false,
      "inputs": [
        {
          "indexed": true,
          "internalType": "address",
          "name": "voter",
          "type": "address"
        },
        {
          "indexed": false,
          "internalType": "uint256",
          "name": "result",
          "type": "uint256"
        }
      ],
      "name": "VoteCasted",
      "type": "event"
    },
    {
      "inputs": [],
      "name": "latestBallot",
      "outputs": [
        {
          "internalType": "string",
          "name": "title",
          "type": "string"
        },
        {
          "internalType": "uint256",
          "name": "deadline",
          "type": "uint256"
        },
        {
          "internalType": "bool",
          "name": "isOpen",
          "type": "bool"
        }
      ],
      "stateMutability": "view",
      "type": "function",
      "constant": true
    },
    {
      "inputs": [
        {
          "internalType": "string",
          "name": "_title",
          "type": "string"
        },
        {
          "internalType": "string[]",
          "name": "_options",
          "type": "string[]"
        },
        {
          "internalType": "uint256",
          "name": "_deadline",
          "type": "uint256"
        }
      ],
      "name": "createBallot",
      "outputs": [],
      "stateMutability": "nonpayable",
      "type": "function"
    },
    {
      "inputs": [
        {
          "internalType": "string",
          "name": "_title",
          "type": "string"
        }
      ],
      "name": "setTitle",
      "outputs": [],
      "stateMutability": "nonpayable",
      "type": "function"
    },
    {
      "inputs": [
        {
          "internalType": "string[]",
          "name": "_options",
          "type": "string[]"
        }
      ],
      "name": "setOptions",
      "outputs": [],
      "stateMutability": "nonpayable",
      "type": "function"
    },
    {
      "inputs": [
        {
          "internalType": "uint256",
          "name": "_deadline",
          "type": "uint256"
        }
      ],
      "name": "setDeadline",
      "outputs": [],
      "stateMutability": "nonpayable",
      "type": "function"
    },
    {
      "inputs": [
        {
          "internalType": "bool",
          "name": "_isOpen",
          "type": "bool"
        }
      ],
      "name": "setIsOpen",
      "outputs": [],
      "stateMutability": "nonpayable",
      "type": "function"
    },
    {
      "inputs": [
        {
          "internalType": "string",
          "name": "_option",
          "type": "string"
        }
      ],
      "name": "castVote",
      "outputs": [],
      "stateMutability": "nonpayable",
      "type": "function"
    },
    {
      "inputs": [],
      "name": "finalizeBallot",
      "outputs": [],
      "stateMutability": "nonpayable",
      "type": "function"
    },
    {
      "inputs": [
        {
          "internalType": "address",
          "name": "_voter",
          "type": "address"
        }
      ],
      "name": "hasVotedForBallot",
      "outputs": [
        {
          "internalType": "bool",
          "name": "",
          "type": "bool"
        }
      ],
      "stateMutability": "view",
      "type": "function",
      "constant": true
    },
    {
      "inputs": [],
      "name": "getOptions",
      "outputs": [
        {
          "internalType": "string[]",
          "name": "",
          "type": "string[]"
        }
      ],
      "stateMutability": "view",
      "type": "function",
      "constant": true
    },
    {
      "inputs": [],
      "name": "getBallotTitle",
      "outputs": [
        {
          "internalType": "string",
          "name": "",
          "type": "string"
        }
      ],
      "stateMutability": "view",
      "type": "function",
      "constant": true
    },
    {
      "inputs": [],
      "name": "getDeadline",
      "outputs": [
        {
          "internalType": "uint256",
          "name": "",
          "type": "uint256"
        }
      ],
      "stateMutability": "view",
      "type": "function",
      "constant": true
    },
    {
      "inputs": [],
      "name": "getCurrentTimestamp",
      "outputs": [
        {
          "internalType": "uint256",
          "name": "",
          "type": "uint256"
        }
      ],
      "stateMutability": "view",
      "type": "function",
      "constant": true
    },
    {
      "inputs": [],
      "name": "getIsOpen",
      "outputs": [
        {
          "internalType": "bool",
          "name": "",
          "type": "bool"
        }
      ],
      "stateMutability": "view",
      "type": "function",
      "constant": true
    },
    {
      "inputs": [],
      "name": "getWinner",
      "outputs": [
        {
          "internalType": "string",
          "name": "",
          "type": "string"
        }
      ],
      "stateMutability": "view",
      "type": "function",
      "constant": true
    },
    {
      "inputs": [],
      "name": "getVoteCounts",
      "outputs": [
        {
          "internalType": "uint256[]",
          "name": "",
          "type": "uint256[]"
        }
      ],
      "stateMutability": "view",
      "type": "function",
      "constant": true
    }
  ],
  "bytecode": "0x608060405234801561001057600080fd5b50611913806100206000396000f3fe608060405234801561001057600080fd5b50600436106101005760003560e01c80638185d9da11610097578063cc2ee19611610066578063cc2ee19614610275578063d4f8ecb814610293578063f5c895401461029d578063ffc97b20146102bb57610100565b80638185d9da146102015780638e7ea5b21461021d5780639cc2d9931461023b578063b1b0be2f1461025757610100565b806320faae8e116100d357806320faae8e1461018d5780635f8d96de146101a95780636c9230db146101c757806372910be0146101e557610100565b8063085a10cf146101055780630c0e579c14610121578063195199f6146101515780631a18d4cb1461016d575b600080fd5b61011f600480360381019061011a9190610f2f565b6102d9565b005b61013b60048036038101906101369190610ec5565b6102f9565b6040516101489190611436565b60405180910390f35b61016b60048036038101906101669190611018565b610351565b005b61017561035e565b604051610184939291906114be565b60405180910390f35b6101a760048036038101906101a29190610f99565b61040b565b005b6101b161050e565b6040516101be919061157c565b60405180910390f35b6101cf61051a565b6040516101dc919061157c565b60405180910390f35b6101ff60048036038101906101fa9190610f58565b610522565b005b61021b60048036038101906102169190610eee565b61053e565b005b61022561055b565b604051610232919061146c565b60405180910390f35b61025560048036038101906102509190610f58565b610775565b005b61025f6108e9565b60405161026c9190611436565b60405180910390f35b61027d610902565b60405161028a91906113f2565b60405180910390f35b61029b6109de565b005b6102a5610a45565b6040516102b2919061146c565b60405180910390f35b6102c3610ad9565b6040516102d09190611414565b60405180910390f35b80600060030160006101000a81548160ff02191690831515021790555050565b60008060050160008373ffffffffffffffffffffffffffffffffffffffff1673ffffffffffffffffffffffffffffffffffffffff16815260200190815260200160002060009054906101000a900460ff169050919050565b8060006002018190555050565b600080600001805461036f9061177f565b80601f016020809104026020016040519081016040528092919081815260200182805461039b9061177f565b80156103e85780601f106103bd576101008083540402835291602001916103e8565b820191906000526020600020905b8154815290600101906020018083116103cb57829003601f168201915b5050505050908060020154908060030160009054906101000a900460ff16905083565b600282511015801561041f5750600a825111155b61045e576040517f08c379a00000000000000000000000000000000000000000000000000000000081526004016104559061155c565b60405180910390fd5b82600080019080519060200190610476929190610c30565b508160006001019080519060200190610490929190610cb6565b50806000600201819055506001600060030160006101000a81548160ff0219169083151502179055503373ffffffffffffffffffffffffffffffffffffffff167f33651da1dde26b11d4dcbde158f590e919346c7d214ff99ccbbf1d0e0fc335ea848360405161050192919061148e565b60405180910390a2505050565b60008060020154905090565b600042905090565b8060008001908051906020019061053a929190610c30565b5050565b8060006001019080519060200190610557929190610cb6565b5050565b6060600060030160009054906101000a900460ff16156105b0576040517f08c379a00000000000000000000000000000000000000000000000000000000081526004016105a7906114fc565b60405180910390fd5b6000600201544210156105f8576040517f08c379a00000000000000000000000000000000000000000000000000000000081526004016105ef9061153c565b60405180910390fd5b6000606060005b60006001018054905081101561076c5760008060040160006001018381548110610652577f4e487b7100000000000000000000000000000000000000000000000000000000600052603260045260246000fd5b9060005260206000200160405161066991906113db565b90815260200160405180910390205490508381111561075857809350600060010182815481106106c2577f4e487b7100000000000000000000000000000000000000000000000000000000600052603260045260246000fd5b9060005260206000200180546106d79061177f565b80601f01602080910402602001604051908101604052809291908181526020018280546107039061177f565b80156107505780601f1061072557610100808354040283529160200191610750565b820191906000526020600020905b81548152906001019060200180831161073357829003601f168201915b505050505092505b508080610764906117b1565b9150506105ff565b50809250505090565b600060050160003373ffffffffffffffffffffffffffffffffffffffff1673ffffffffffffffffffffffffffffffffffffffff16815260200190815260200160002060009054906101000a900460ff1615610805576040517f08c379a00000000000000000000000000000000000000000000000000000000081526004016107fc9061151c565b60405180910390fd5b60006004018160405161081891906113c4565b90815260200160405180910390206000815480929190610837906117b1565b91905055506001600060050160003373ffffffffffffffffffffffffffffffffffffffff1673ffffffffffffffffffffffffffffffffffffffff16815260200190815260200160002060006101000a81548160ff0219169083151502179055503373ffffffffffffffffffffffffffffffffffffffff167fd0e6c39f2e086dc49f1524b47725526a56945cd1ff661f37976f1725a1e5698660016040516108de9190611451565b60405180910390a250565b60008060030160009054906101000a900460ff16905090565b60606000600101805480602002602001604051908101604052809291908181526020016000905b828210156109d55783829060005260206000200180546109489061177f565b80601f01602080910402602001604051908101604052809291908181526020018280546109749061177f565b80156109c15780601f10610996576101008083540402835291602001916109c1565b820191906000526020600020905b8154815290600101906020018083116109a457829003601f168201915b505050505081526020019060010190610929565b50505050905090565b600060020154421015610a26576040517f08c379a0000000000000000000000000000000000000000000000000000000008152600401610a1d906114fc565b60405180910390fd5b60008060030160006101000a81548160ff021916908315150217905550565b6060600080018054610a569061177f565b80601f0160208091040260200160405190810160405280929190818152602001828054610a829061177f565b8015610acf5780601f10610aa457610100808354040283529160200191610acf565b820191906000526020600020905b815481529060010190602001808311610ab257829003601f168201915b5050505050905090565b60606000806001018054905067ffffffffffffffff811115610b24577f4e487b7100000000000000000000000000000000000000000000000000000000600052604160045260246000fd5b604051908082528060200260200182016040528015610b525781602001602082028036833780820191505090505b50905060005b600060010180549050811015610c2857600060040160006001018281548110610baa577f4e487b7100000000000000000000000000000000000000000000000000000000600052603260045260246000fd5b90600052602060002001604051610bc191906113db565b908152602001604051809103902054828281518110610c09577f4e487b7100000000000000000000000000000000000000000000000000000000600052603260045260246000fd5b6020026020010181815250508080610c20906117b1565b915050610b58565b508091505090565b828054610c3c9061177f565b90600052602060002090601f016020900481019282610c5e5760008555610ca5565b82601f10610c7757805160ff1916838001178555610ca5565b82800160010185558215610ca5579182015b82811115610ca4578251825591602001919060010190610c89565b5b509050610cb29190610d16565b5090565b828054828255906000526020600020908101928215610d05579160200282015b82811115610d04578251829080519060200190610cf4929190610c30565b5091602001919060010190610cd6565b5b509050610d129190610d33565b5090565b5b80821115610d2f576000816000905550600101610d17565b5090565b5b80821115610d535760008181610d4a9190610d57565b50600101610d34565b5090565b508054610d639061177f565b6000825580601f10610d755750610d94565b601f016020900490600052602060002090810190610d939190610d16565b5b50565b6000610daa610da5846115c8565b611597565b9050808382526020820190508260005b85811015610dea5781358501610dd08882610e86565b845260208401935060208301925050600181019050610dba565b5050509392505050565b6000610e07610e02846115f4565b611597565b905082815260208101848484011115610e1f57600080fd5b610e2a84828561173d565b509392505050565b600081359050610e4181611898565b92915050565b600082601f830112610e5857600080fd5b8135610e68848260208601610d97565b91505092915050565b600081359050610e80816118af565b92915050565b600082601f830112610e9757600080fd5b8135610ea7848260208601610df4565b91505092915050565b600081359050610ebf816118c6565b92915050565b600060208284031215610ed757600080fd5b6000610ee584828501610e32565b91505092915050565b600060208284031215610f0057600080fd5b600082013567ffffffffffffffff811115610f1a57600080fd5b610f2684828501610e47565b91505092915050565b600060208284031215610f4157600080fd5b6000610f4f84828501610e71565b91505092915050565b600060208284031215610f6a57600080fd5b600082013567ffffffffffffffff811115610f8457600080fd5b610f9084828501610e86565b91505092915050565b600080600060608486031215610fae57600080fd5b600084013567ffffffffffffffff811115610fc857600080fd5b610fd486828701610e86565b935050602084013567ffffffffffffffff811115610ff157600080fd5b610ffd86828701610e47565b925050604061100e86828701610eb0565b9150509250925092565b60006020828403121561102a57600080fd5b600061103884828501610eb0565b91505092915050565b600061104d838361115e565b905092915050565b600061106183836113a6565b60208301905092915050565b600061107882611659565b6110828185611694565b93508360208202850161109485611624565b8060005b858110156110d057848403895281516110b18582611041565b94506110bc8361167a565b925060208a01995050600181019050611098565b50829750879550505050505092915050565b60006110ed82611664565b6110f781856116a5565b935061110283611634565b8060005b8381101561113357815161111a8882611055565b975061112583611687565b925050600181019050611106565b5085935050505092915050565b611149816116f5565b82525050565b6111588161172b565b82525050565b60006111698261166f565b61117381856116b6565b935061118381856020860161174c565b61118c81611887565b840191505092915050565b60006111a28261166f565b6111ac81856116c7565b93506111bc81856020860161174c565b6111c581611887565b840191505092915050565b60006111db8261166f565b6111e581856116d8565b93506111f581856020860161174c565b80840191505092915050565b6000815461120e8161177f565b61121881866116d8565b94506001821660008114611233576001811461124457611277565b60ff19831686528186019350611277565b61124d85611644565b60005b8381101561126f57815481890152600182019150602081019050611250565b838801955050505b50505092915050565b600061128d6017836116c7565b91507f566f74696e67206973207374696c6c206f6e676f696e670000000000000000006000830152602082019050919050565b60006112cd6017836116c7565b91507f596f75206861766520616c726561647920766f7465642e0000000000000000006000830152602082019050919050565b600061130d6018836116c7565b91507f566f74696e6720686173206e6f7420656e6465642079657400000000000000006000830152602082019050919050565b600061134d602a836116c7565b91507f4e756d626572206f66206f7074696f6e73206d7573742062652062657477656560008301527f6e203220616e64203130000000000000000000000000000000000000000000006020830152604082019050919050565b6113af81611721565b82525050565b6113be81611721565b82525050565b60006113d082846111d0565b915081905092915050565b60006113e78284611201565b915081905092915050565b6000602082019050818103600083015261140c818461106d565b905092915050565b6000602082019050818103600083015261142e81846110e2565b905092915050565b600060208201905061144b6000830184611140565b92915050565b6000602082019050611466600083018461114f565b92915050565b600060208201905081810360008301526114868184611197565b905092915050565b600060408201905081810360008301526114a88185611197565b90506114b760208301846113b5565b9392505050565b600060608201905081810360008301526114d88186611197565b90506114e760208301856113b5565b6114f46040830184611140565b949350505050565b6000602082019050818103600083015261151581611280565b9050919050565b60006020820190508181036000830152611535816112c0565b9050919050565b6000602082019050818103600083015261155581611300565b9050919050565b6000602082019050818103600083015261157581611340565b9050919050565b600060208201905061159160008301846113b5565b92915050565b6000604051905081810181811067ffffffffffffffff821117156115be576115bd611858565b5b8060405250919050565b600067ffffffffffffffff8211156115e3576115e2611858565b5b602082029050602081019050919050565b600067ffffffffffffffff82111561160f5761160e611858565b5b601f19601f8301169050602081019050919050565b6000819050602082019050919050565b6000819050602082019050919050565b60008190508160005260206000209050919050565b600081519050919050565b600081519050919050565b600081519050919050565b6000602082019050919050565b6000602082019050919050565b600082825260208201905092915050565b600082825260208201905092915050565b600082825260208201905092915050565b600082825260208201905092915050565b600081905092915050565b60006116ee82611701565b9050919050565b60008115159050919050565b600073ffffffffffffffffffffffffffffffffffffffff82169050919050565b6000819050919050565b600061173682611721565b9050919050565b82818337600083830152505050565b60005b8381101561176a57808201518184015260208101905061174f565b83811115611779576000848401525b50505050565b6000600282049050600182168061179757607f821691505b602082108114156117ab576117aa611829565b5b50919050565b60006117bc82611721565b91507fffffffffffffffffffffffffffffffffffffffffffffffffffffffffffffffff8214156117ef576117ee6117fa565b5b600182019050919050565b7f4e487b7100000000000000000000000000000000000000000000000000000000600052601160045260246000fd5b7f4e487b7100000000000000000000000000000000000000000000000000000000600052602260045260246000fd5b7f4e487b7100000000000000000000000000000000000000000000000000000000600052604160045260246000fd5b6000601f19601f8301169050919050565b6118a1816116e3565b81146118ac57600080fd5b50565b6118b8816116f5565b81146118c357600080fd5b50565b6118cf81611721565b81146118da57600080fd5b5056fea2646970667358221220fb4f0049ec4db722044d3b3ff51de0d70f099498018e5a7dc50e05d6d561bc2464736f6c63430008000033",
  "immutableReferences": {},
  "source": "// SPDX-License-Identifier: MIT\r\npragma solidity ^0.8.0;\r\n\r\ncontract VotingSystem {\r\n    struct Ballot {\r\n        string title;\r\n        string[] options;\r\n        uint256 deadline;\r\n        bool isOpen;\r\n        mapping(string => uint256) voteCounts;\r\n        mapping(address => bool) hasVoted; // \r\n    }\r\n\r\n    Ballot public latestBallot; // \r\n\r\n    event BallotCreated(address indexed creator, string title, uint256 deadline);\r\n    event VoteCasted(address indexed voter, uint256 result);\r\n\r\n    function createBallot(string memory _title, string[] memory _options, uint256 _deadline) public {\r\n        require(_options.length >= 2 && _options.length <= 10, \"Number of options must be between 2 and 10\");\r\n        latestBallot.title = _title;\r\n        latestBallot.options = _options;\r\n        latestBallot.deadline = _deadline;\r\n        latestBallot.isOpen = true;\r\n\r\n        emit BallotCreated(msg.sender, _title, _deadline);\r\n    }\r\n\r\n    function setTitle(string memory _title) public {\r\n        latestBallot.title = _title;\r\n    }\r\n\r\n    function setOptions(string[] memory _options) public {\r\n        latestBallot.options = _options;\r\n    }\r\n\r\n    function setDeadline(uint256 _deadline) public {\r\n        latestBallot.deadline = _deadline;\r\n    }\r\n\r\n    function setIsOpen(bool _isOpen) public {\r\n        latestBallot.isOpen = _isOpen;\r\n    }\r\n\r\n    function castVote(string memory _option) public {\r\n        require(!latestBallot.hasVoted[msg.sender], \"You have already voted.\");\r\n\r\n        latestBallot.voteCounts[_option]++;\r\n        latestBallot.hasVoted[msg.sender] = true; // \r\n\r\n        emit VoteCasted(msg.sender, 1); // 1 \r\n    }\r\n\r\n    function finalizeBallot() public {\r\n        require(block.timestamp >= latestBallot.deadline, \"Voting is still ongoing\");\r\n        latestBallot.isOpen = false;\r\n    }\r\n\r\n    // \r\n    function hasVotedForBallot(address _voter) public view returns (bool) {\r\n        return latestBallot.hasVoted[_voter];\r\n    }\r\n\r\n    // \r\n    function getOptions() public view returns (string[] memory) {\r\n        return latestBallot.options;\r\n    }\r\n\r\n    // \r\n    function getBallotTitle() public view returns (string memory) {\r\n        return latestBallot.title;\r\n    }\r\n\r\n    // \r\n    function getDeadline() public view returns (uint256) {\r\n        return latestBallot.deadline;\r\n    }\r\n\r\n    // \r\n    function getCurrentTimestamp() public view returns (uint256) {\r\n        return block.timestamp;\r\n    }\r\n\r\n    function getIsOpen() public view returns (bool) {\r\n        return latestBallot.isOpen;\r\n    }\r\n\r\n    function getWinner() public view returns (string memory) {\r\n        require(!latestBallot.isOpen, \"Voting is still ongoing\");\r\n        require(block.timestamp >= latestBallot.deadline, \"Voting has not ended yet\");\r\n\r\n        uint256 maxVotes = 0;\r\n        string memory winner;\r\n        \r\n        // \r\n        for (uint256 i = 0; i < latestBallot.options.length; i++) {\r\n            uint256 votes = latestBallot.voteCounts[latestBallot.options[i]];\r\n            if (votes > maxVotes) {\r\n                maxVotes = votes;\r\n                winner = latestBallot.options[i];\r\n            }\r\n        }\r\n        return winner;\r\n    }\r\n\r\n    // \r\n    function getVoteCounts() public view returns (uint256[] memory) {\r\n        uint256[] memory counts = new uint256[](latestBallot.options.length);\r\n        for (uint256 i = 0; i < latestBallot.options.length; i++) {\r\n            counts[i] = latestBallot.voteCounts[latestBallot.options[i]];\r\n        }\r\n        return counts;\r\n    }\r\n}\r\n",
  "sourcePath": "C:\\Users\\atpdx\\atpdxy\\graduation_project\\contracts\\VotingSystem.sol",
  "compiler": {
    "name": "solc",
    "version": "0.8.0+commit.c7dfd78e.Emscripten.clang"
  },
  "schemaVersion": "3.4.16",
  "updatedAt": "2024-02-29T15:01:40.501Z",
  "networkType": "ethereum",
  "devdoc": {
    "kind": "dev",
    "methods": {},
    "version": 1
  },
  "userdoc": {
    "kind": "user",
    "methods": {},
    "version": 1
  }
}